S0110000434F4E5645525445522E737265635B
S11300000C942A000C9447000C9447000C9447006D
S11300100C9447000C9447000C9447000C94470040
S11300200C9447000C9447000C9447000C94470030
S11300300C9447000C9447000C9447000C94470020
S11300400C9447000C9447000C9447000C94470010
S11300500C94470011241FBECFE5D8E0DEBFCDBF0E
S113006010E0A0E6B0E0ECE0F7E102C005900D92EC
S1130070A23FB107D9F720E0A2EFB0E001C01D9282
S1130080AA3FB207E1F70E94A7080C94840B0C94D2
S11300900000FF920F931F93CF93DF9361E08CE0F6
S11300A00E94760A61E08DE00E94760A61E08EE0AB
S11300B00E94760A61E08FE00E94760A10E00F2E1B
S11300C0FEE4FF2EF02D27C00CE0010F60E0802F2E
S11300D00E94760AD0E018C0CAE1CD0F8C2F0E948E
S11300E00B0B811110C0E12FF0E0EE0FFF1FEE0F9C
S11300F0FF1FEF59FF4FED0FF11DF0808C2F0E9471
S11301000B0B8823D9F3DF5FD43030F361E0802F09
S11301100E94760A1F5F1430B8F28F2DDF91CF91C1
S11301201F910F91FF900895CF93C82F60E081E055
S11301300E94760A6C2F661F6627661F86E00E945F
S1130140760AC6FB662760F985E00E94760AC5FB3D
S1130150662760F984E00E94760AC4FB662760F98A
S113016083E00E94760A61E082E00E94760A8FECC6
S113017097E00197F1F700C0000060E082E00E9480
S1130180760A8FEC97E00197F1F700C00000C3FBFB
S1130190662760F986E00E94760AC2FB662760F94A
S11301A085E00E94760AC1FB662760F984E00E941C
S11301B0760A6C2F617083E00E94760A61E082E027
S11301C00E94760A8FEC97E00197F1F700C00000D7
S11301D060E082E00E94760A8FEC97E00197F1F7E5
S11301E000C00000CF910895CF93C82F61E081E053
S11301F00E94760A6C2F661F6627661F86E00E949F
S1130200760AC6FB662760F985E00E94760AC5FB7C
S1130210662760F984E00E94760AC4FB662760F9C9
S113022083E00E94760A61E082E00E94760A8FEC05
S113023097E00197F1F700C0000060E082E00E94BF
S1130240760A8FEC97E00197F1F700C00000C3FB3A
S1130250662760F986E00E94760AC2FB662760F989
S113026085E00E94760AC1FB662760F984E00E945B
S1130270760A6C2F617083E00E94760A61E082E066
S11302800E94760A8FEC97E00197F1F700C0000016
S113029060E082E00E94760A8FEC97E00197F1F724
S11302A000C00000CF9108952FE788E391E021502A
S11302B080409040E1F700C0000082E00E9494007A
S11302C088E20E9494008CE00E94940081E00E94E5
S11302D094008FEC97E00197F1F700C0000086E0EE
S11302E00E94940008950E94F40008950F931F93B0
S11302F0CF938C01C0E003C00E94F400CF5FF801EB
S1130300EC0FF11D80818111F7CFCF911F910F91D7
S11303100895CF92DF92EF92FF921F93CF93DF93D2
S1130320CDB7DEB764970FB6F894DEBF0FBECDBF6E
S11303306B017C01611571058105910521F480E350
S11303400E9473013BC099235CF4F094E094D09430
S1130350C094C11CD11CE11CF11C8DE20E947301EC
S113036010E015C0C701B6012AE030E040E050E0DB
S11303700E94430BE1E0F0E0EC0FFD1FE10FF11DE3
S1130380605D6083C22ED32EE42EF52E1F5F1C14F5
S11303901D041E041F0434F3FF24FA94F10E0CC050
S11303A0E1E0F0E0EC0FFD1FEF0DF11DF7FCFA9515
S11303B080810E947301FA94FF2094F764960FB62B
S11303C0F894DEBF0FBECDBFDF91CF911F91FF9098
S11303D0EF90DF90CF9008951F93CF93DF93182F62
S11303E0D0E0C7E015C0812F90E00C2E02C0959597
S11303F087950A94E2F780FF05C081E30E947301A8
S1130400D1E005C0D13019F480E30E947301C150DA
S1130410CC234CF7DF91CF911F910895811105C032
S1130420862F80680E9494000895813021F480EC26
S1130430860F0E949400089581E00E94940008951C
S1130440CF93982F92959F70C82FCF709A3028F42D
S113045080E3890F0E94730104C087E3890F0E941F
S11304607301CA3028F480E38C0F0E94730104C026
S113047087E38C0F0E947301CF9108950F931F930C
S11304808091F600811116C060E00E940E0281E79F
S113049090E00E94760160E081E00E940E0284E711
S11304A090E00E94760162E080E00E940E0281E00A
S11304B08093F6000E944900809360008E3409F412
S11304C089C08091F600813079F462E080E00E9476
S11304D00E0287E790E00E94760162E080E00E94CD
S11304E00E0282E08093F6008091600090ED980FF8
S11304F09A30A0F50E9473018091F2009091F3006C
S1130500A091F400B091F500880F991FAA1FBB1F9A
S11305108C019D01000F111F221F331F000F111F9B
S1130520221F331FAC01BD01400F511F621F731FF7
S11305302091600030E0C901C097092E000CAA0B7D
S1130540BB0B840F951FA61FB71F8093F2009093D7
S1130550F300A093F400B093F5003CC08D33E1F4B4
S113056062E081E00E940E028091F2000E94EC01A0
S11305708FE790E00E94760162E080E00E940E0224
S113058081E08093F6001092F2001092F300109232
S1130590F4001092F5001EC0833429F41092F9007F
S11305A01092F60017C00E941C0260E080E00E94D6
S11305B00E0286E890E00E9476012FEF8EE994E225
S11305C0215080409040E1F700C000001092F900F3
S11305D01092F6001F910F9108950F931F9380912D
S11305E0F600811116C060E00E940E0281E790E0DF
S11305F00E94760160E081E00E940E0281E790E0B3
S11306000E94760162E080E00E940E0281E0809305
S1130610F6000E944900809360008E3409F48BC078
S11306208091F600813079F462E080E00E940E024D
S113063087E790E00E94760162E080E00E940E026B
S113064082E08093F6008091600090ED980F9A30DC
S1130650A0F50E9473018091F2009091F300A091A3
S1130660F400B091F500880F991FAA1FBB1F8C01DD
S11306709D01000F111F221F331F000F111F221F86
S1130680331FAC01BD01400F511F621F731F209126
S1130690600030E0C901C097092E000CAA0BBB0B07
S11306A0840F951FA61FB71F8093F2009093F30049
S11306B0A093F400B093F5003EC08D33F1F462E0F2
S11306C081E00E940E026091F2007091F30080912B
S11306D0F4009091F5000E9489018FE790E00E9458
S11306E0760181E08093F6001092F2001092F300FC
S11306F01092F4001092F5001EC0833429F4109275
S1130700F9001092F60017C00E941C0260E080E01D
S11307100E940E0286E890E00E9476012FEF8EE997
S113072094E2215080409040E1F700C00000109214
S1130730F9001092F6001F910F9108950F931F93E3
S11307408091F600811116C060E00E940E0281E7DC
S113075090E00E94760160E081E00E940E0285E94B
S113076090E00E94760162E080E00E940E0281E047
S11307708093F6000E944900809360008E3409F44F
S113078081C08091F600813059F487E790E00E949F
S1130790760162E080E00E940E0282E08093F6001F
S11307A08091600090ED980F9A30A0F50E9473013B
S11307B08091F2009091F300A091F400B091F500C3
S11307C0880F991FAA1FBB1F8C019D01000F111FC9
S11307D0221F331F000F111F221F331FAC01BD0145
S11307E0400F511F621F731F2091600030E0C90148
S11307F0C097092E000CAA0BBB0B840F951FA61FD4
S1130800B71F8093F2009093F300A093F400B09389
S1130810F50038C08D33C1F462E081E00E940E021D
S11308208091F2000E9420028FE790E00E947601FE
S113083081E08093F6001092F2001092F30010927F
S1130840F4001092F5001EC0833429F41092F900CC
S11308501092F60017C00E941C0260E080E00E9423
S11308600E0286E890E00E9476012FEF8EE994E272
S1130870215080409040E1F700C000001092F90040
S11308801092F6001F910F9108958091F600811146
S113089016C060E00E940E0284E790E00E94760198
S11308A060E081E00E940E0284E790E00E947601FD
S11308B062E080E00E940E0281E08093F6000E94D4
S11308C04900809360008E3409F473C08091F6006F
S11308D0813059F487E790E00E94760162E080E07D
S11308E00E940E0282E08093F6008091600090EDF9
S11308F0980F923030F50E9473018091F20090912C
S1130900F300A091F400B091F500AC01BD01440FD7
S1130910551F661F771F2091600030E0C901C09702
S1130920092E000CAA0BBB0B840F951FA61FB71F23
S11309308093F2009093F300A093F400B093F50039
S113094008958D33C1F462E081E00E940E0280912B
S1130950F2000E94EC018CE790E00E94760181E0B5
S11309608093F6001092F2001092F3001092F400BB
S11309701092F5000895833429F41092F90010922E
S1130980F60008950E941C0260E080E00E940E02BE
S113099086E890E00E9476012FEF8EE994E22150E0
S11309A080409040E1F700C000001092F9001092DE
S11309B0F60008958091F600811116C060E00E944F
S11309C00E0284E790E00E94760160E081E00E94DC
S11309D00E0281E790E00E94760162E080E00E94CE
S11309E00E0281E08093F6000E944900809360002B
S11309F08E3409F479C08091F600813059F487E788
S1130A0090E00E94760162E080E00E940E0282E0A3
S1130A108093F6008091600090ED980F923030F54D
S1130A200E9473018091F2009091F300A091F40070
S1130A30B091F500AC01BD01440F551F661F771F2F
S1130A402091600030E0C901C097092E000CAA0B68
S1130A50BB0B840F951FA61FB71F8093F2009093C2
S1130A60F300A093F400B093F50008958D33F1F4EE
S1130A7062E081E00E940E026091F2007091F30046
S1130A808091F4009091F5000E9489018CE790E038
S1130A900E94760181E08093F6001092F200109299
S1130AA0F3001092F4001092F5000895833429F4B1
S1130AB01092F9001092F60008950E941C0260E062
S1130AC080E00E940E0286E890E00E9476012FEFFB
S1130AD08EE994E2215080409040E1F700C000008C
S1130AE01092F9001092F60008958091F600811199
S1130AF016C060E00E940E0284E790E00E94760136
S1130B0060E081E00E940E0285E990E00E94760197
S1130B1062E080E00E940E0281E08093F6000E9471
S1130B204900809360008E3409F473C08091F6000C
S1130B30813059F487E790E00E94760162E080E01A
S1130B400E940E0282E08093F6008091600090ED96
S1130B50980F923030F50E9473018091F2009091C9
S1130B60F300A091F400B091F500AC01BD01440F75
S1130B70551F661F771F2091600030E0C901C097A0
S1130B80092E000CAA0BBB0B840F951FA61FB71FC1
S1130B908093F2009093F300A093F400B093F500D7
S1130BA008958D33C1F462E081E00E940E028091C9
S1130BB0F2000E9420028CE790E00E94760181E01E
S1130BC08093F6001092F2001092F3001092F40059
S1130BD01092F5000895833429F41092F9001092CC
S1130BE0F60008950E941C0260E080E00E940E025C
S1130BF086E890E00E9476012FEF8EE994E221507E
S1130C0080409040E1F700C000001092F90010927B
S1130C10F60008958091F600811116C060E00E94EC
S1130C200E0285E990E00E94760160E081E00E9476
S1130C300E0281E790E00E94760162E080E00E946B
S1130C400E0281E08093F6000E94490080936000C8
S1130C508E3409F4C1C08091F600813059F487E7DD
S1130C6090E00E94760162E080E00E940E0282E041
S1130C708093F6008091600090ED980F9A3028F0F0
S1130C809FE9980F963008F069C00E947301209183
S1130C90600080ED820F8A3068F58091F2009091B7
S1130CA0F300A091F400B091F500880F991FAA1FDA
S1130CB0BB1F880F991FAA1FBB1FAC01BD01440FA6
S1130CC0551F661F771F440F551F661F771F822FFE
S1130CD090E0C097092E000CAA0BBB0B840F951F44
S1130CE0A61FB71F8093F2009093F300A093F40023
S1130CF0B093F5008FE9820F863008F06DC08091C3
S1130D00F2009091F300A091F400B091F500880FE7
S1130D10991FAA1FBB1F880F991FAA1FBB1FAC01D5
S1130D20BD01440F551F661F771F440F551F661FD3
S1130D30771F30E0C90187559109092E000CAA0BD1
S1130D40BB0B840F951FA61FB71F8093F2009093CF
S1130D50F300A093F400B093F50008958D33F1F4FB
S1130D6062E081E00E940E026091F2007091F30053
S1130D708091F4009091F5000E9489018CE790E045
S1130D800E94760181E08093F6001092F2001092A6
S1130D90F3001092F4001092F5000895833429F4BE
S1130DA01092F9001092F60008950E941C0260E06F
S1130DB080E00E940E0286E890E00E9476012FEF08
S1130DC08EE994E2215080409040E1F700C0000099
S1130DD01092F9001092F60008958091F6008111A6
S1130DE016C060E00E940E0285E990E00E94760140
S1130DF060E081E00E940E0284E790E00E947601A8
S1130E0062E080E00E940E0281E08093F6000E947E
S1130E104900809360008E3409F4BBC08091F600D1
S1130E20813059F487E790E00E94760162E080E027
S1130E300E940E0282E08093F6008091600090EDA3
S1130E40980F9A3028F09FE9980F963008F069C0FF
S1130E500E9473012091600080ED820F8A3068F552
S1130E608091F2009091F300A091F400B091F5000C
S1130E70880F991FAA1FBB1F880F991FAA1FBB1F8A
S1130E80AC01BD01440F551F661F771F440F551F4A
S1130E90661F771F822F90E0C097092E000CAA0BC3
S1130EA0BB0B840F951FA61FB71F8093F20090936E
S1130EB0F300A093F400B093F5008FE9820F86301D
S1130EC008F067C08091F2009091F300A091F400C3
S1130ED0B091F500880F991FAA1FBB1F880F991F97
S1130EE0AA1FBB1FAC01BD01440F551F661F771F0E
S1130EF0440F551F661F771F30E0C90187559109BC
S1130F00092E000CAA0BBB0B840F951FA61FB71F3D
S1130F108093F2009093F300A093F400B093F50053
S1130F2008958D33C1F462E081E00E940E02809145
S1130F30F2000E94EC018CE790E00E94760181E0CF
S1130F408093F6001092F2001092F3001092F400D5
S1130F501092F5000895833429F41092F900109248
S1130F60F60008950E941C0260E080E00E940E02D8
S1130F7086E890E00E9476012FEF8EE994E22150FA
S1130F8080409040E1F700C000001092F9001092F8
S1130F90F60008958091F600811116C060E00E9469
S1130FA00E0285E990E00E94760160E081E00E94F3
S1130FB00E0285E990E00E94760162E080E00E94E2
S1130FC00E0281E08093F6000E9449008093600045
S1130FD08E3409F4BBC08091F600813059F487E760
S1130FE090E00E94760162E080E00E940E0282E0BE
S1130FF08093F6008091600090ED980F9A3028F06D
S11310009FE9980F963008F069C00E9473012091FF
S1131010600080ED820F8A3068F58091F200909133
S1131020F300A091F400B091F500880F991FAA1F56
S1131030BB1F880F991FAA1FBB1FAC01BD01440F22
S1131040551F661F771F440F551F661F771F822F7A
S113105090E0C097092E000CAA0BBB0B840F951FC0
S1131060A61FB71F8093F2009093F300A093F4009F
S1131070B093F5008FE9820F863008F067C0809145
S1131080F2009091F300A091F400B091F500880F64
S1131090991FAA1FBB1F880F991FAA1FBB1FAC0152
S11310A0BD01440F551F661F771F440F551F661F50
S11310B0771F30E0C90187559109092E000CAA0B4E
S11310C0BB0B840F951FA61FB71F8093F20090934C
S11310D0F300A093F400B093F50008958D33C1F4A8
S11310E062E081E00E940E028091F2000E942002E0
S11310F08CE790E00E94760181E08093F6001092E4
S1131100F2001092F3001092F4001092F50008958A
S1131110833429F41092F9001092F60008950E9485
S11311201C0260E080E00E940E0286E890E00E94CB
S113113076012FEF8EE994E2215080409040E1F750
S113114000C000001092F9001092F60008950E9469
S1131150FB0A0E94540166E080E00E940E0288E9C6
S113116090E00E9476012FEF89E698E121508040BB
S11311709040E1F700C000000E941C028091F90039
S1131180811137C060E00E940E028EE990E00E9457
S1131190760160E081E00E940E028BEA90E00E94FA
S11311A076010E944900809360008E3411F19FEC17
S11311B0980F933038F480538093F80081E0809343
S11311C0F90017C00E941C0260E080E00E940E0239
S11311D087EB90E00E9476012FEF8EE994E2215094
S11311E080409040E1F700C000000E941C02109271
S11311F0F9008091F9008130C1F560E080E00E943F
S11312000E0287EC90E00E94760160E081E00E948B
S11312100E028BEA90E00E9476010E9449008093BE
S113122060008E3411F19FEC980F933038F48053A2
S11312308093F70082E08093F90017C00E941C029B
S113124060E080E00E940E0287EB90E00E9476014D
S11312502FEF8EE994E2215080409040E1F700C0E6
S113126000000E941C021092F9008091F900823063
S113127009F084CF8091F8008230B9F0833039F1DD
S1131280813009F07BCF8091F700823041F08330C8
S113129049F0813009F072CF0E94ED026FCF0E94B5
S11312A03E026CCF0E949E0369CF8091F70082308A
S11312B041F0833049F0813009F060CF0E94DA04B4
S11312C05DCF0E9445045ACF0E94750557CF809187
S11312D0F700823041F0833049F0813009F04ECF7D
S11312E00E940A064BCF0E94ED0648CF0E94CA070F
S11312F045CF982F9695969596958770613009F409
S113130055C020F0623009F4A1C008959130C1F0B5
S113131028F0923039F19330B9F108954AB321E0BD
S113132030E0B90102C0660F771F8A95E2F7CB015E
S1131330942F982B9ABB9BB3809589238BBB0895DC
S113134047B321E030E0B90102C0660F771F8A95E8
S1131350E2F7CB01942F982B97BB98B38095892300
S113136088BB089544B321E030E0B90102C0660FA0
S1131370771F8A95E2F7CB01942F982B94BB95B3F2
S11313808095892385BB089541B321E030E0B901FC
S113139002C0660F771F8A95E2F7CB01942F982B32
S11313A091BB92B38095892382BB08959130C1F09B
S11313B028F0923039F19330B9F108954AB321E01D
S11313C030E0B90102C0660F771F8A95E2F7CB01BE
S11313D08095942F98239ABB9BB389238BBB089544
S11313E047B321E030E0B90102C0660F771F8A9548
S11313F0E2F7CB018095942F982397BB98B3892368
S113140088BB089544B321E030E0B90102C0660FFF
S1131410771F8A95E2F7CB018095942F982394BB8C
S113142095B3892385BB089541B321E030E0B90128
S113143002C0660F771F8A95E2F7CB018095942F3F
S1131440982391BB92B3892382BB08959130C1F054
S113145028F0923039F19330B9F108954AB321E07C
S113146030E0B90102C0660F771F8A95E2F7CB011D
S1131470962F909594239ABB9BB3892B8BBB08958D
S113148047B321E030E0B90102C0660F771F8A95A7
S1131490E2F7CB01962F9095942397BB98B3892BB1
S11314A088BB089544B321E030E0B90102C0660F5F
S11314B0771F8A95E2F7CB01962F9095942394BBDE
S11314C095B3892B85BB089541B321E030E0B90180
S11314D002C0660F771F8A95E2F7CB01962F90958D
S11314E0942391BB92B3892B82BB0895982F969530
S11314F09695969587706130E1F5913099F028F0D2
S11315009230E9F0933041F108954BB321E030E09B
S1131510B90102C0660F771F8A95E2F7CB01842BCD
S11315208BBB089548B321E030E0B90102C0660FD7
S1131530771F8A95E2F7CB01842B88BB089545B3C6
S113154021E030E0B90102C0660F771F8A95E2F707
S1131550CB01842B85BB089542B321E030E0B9016F
S113156002C0660F771F8A95E2F7CB01842B82BBFA
S1131570089561113FC09130A1F028F09230F9F044
S1131580933059F108954BB321E030E0B90102C022
S1131590660F771F8A95E2F7CB01809584238BBB76
S11315A0089548B321E030E0B90102C0660F771F07
S11315B08A95E2F7CB018095842388BB089545B3CF
S11315C021E030E0B90102C0660F771F8A95E2F787
S11315D0CB018095842385BB089542B321E030E09C
S11315E0B90102C0660F771F8A95E2F7CB01809597
S11315F0842382BB0895CF93C0E009C0EC2FF0E0B0
S1131600EE52FF4F60818C2F0E947909CF5FC03268
S1131610A8F3CF910895982F969596959695482F6F
S11316204770913081F028F09230B9F09330F9F09E
S113163028C099B3892F90E002C0959587954A9563
S1131640E2F78170089526B330E0C90102C0959590
S113165087954A95E2F78170089523B330E0C90174
S113166002C0959587954A95E2F78170089520B355
S113167030E0C90102C0959587954A95E2F78170DB
S1131680089580E00895052E97FB1EF400940E94AF
S11316905A0B57FD07D00E94620B07FC03D04EF48F
S11316A00C945A0B50954095309521953F4F4F4FD0
S11316B05F4F089590958095709561957F4F8F4FFA
S11316C09F4F0895A1E21A2EAA1BBB1BFD010DC05A
S11316D0AA1FBB1FEE1FFF1FA217B307E407F507DE
S11316E020F0A21BB30BE40BF50B661F771F881FBA
S11316F0991F1A9469F760957095809590959B0150
S10F1700AC01BD01CF010895F894FFCFA7
S113170C4E37383961343536623132336543303DC6
S113171C66443A00423A0020202020202020202039
S113172C20202020200077726F6E67206E756D620A
S113173C6572212100483A0068656C6C6F00636F18
S113174C6E766572742066726F6D0031442020329F
S113175C4220202033480077726F6E67206E756DBF
S113176C62657220212100636F6E76657274207439
S113177C6F000100000000000001000000000000E8
S113178C000000000000000000000202020202023D
S105179C000047
S9030000FC
