S0110000434F4E5645525445522E737265635B
S11300000C942A000C9447000C9447000C9447006D
S11300100C9447000C9447000C9447000C94470040
S11300200C9447000C9447000C9447000C94470030
S11300300C9447000C9447000C9447000C94470020
S11300400C9447000C9447000C9447000C94470010
S11300500C94470011241FBECFE5D8E0DEBFCDBF0E
S113006010E0A0E6B0E0E4E2F7E102C005900D92F2
S1130070A23FB107D9F720E0A2EFB0E001C01D9282
S1130080AA3FB207E1F70E94DA080C94900B0C9493
S11300900000DF92EF92FF920F931F93CF93DF93B1
S11300A061E08CE00E94B90961E08DE00E94B90929
S11300B061E08EE00E94B90961E08FE00E94B90915
S11300C091E6E92E90E0F92ECCE0DEE460E08C2F9E
S11300D00E94B90900E010E08AE1D82ED00E8D2DDF
S11300E00E94180B811109C0F701E00FF11FD081A4
S11300F08D2D0E94180B8823D9F30F5F1F4F0430F6
S1130100110551F761E08C2F0E94B909CF5F84E09B
S1130110E80EF11CC031D1F68D2FDF91CF911F91E4
S11301200F91FF90EF90DF900895CF93C82F60E078
S113013081E00E94B9096C2F661F6627661F86E05E
S11301400E94B909C6FB662760F985E00E94B909D7
S1130150C5FB662760F984E00E94B909C4FB6627E1
S113016060F983E00E94B90961E082E00E94B90964
S11301708FEC97E00197F1F700C0000060E082E0A7
S11301800E94B9098FEC97E00197F1F700C00000D5
S1130190C3FB662760F986E00E94B909C2FB6627A3
S11301A060F985E00E94B909C1FB662760F984E023
S11301B00E94B9096C2F617083E00E94B90961E063
S11301C082E00E94B9098FEC97E00197F1F700C033
S11301D0000060E082E00E94B9098FEC97E001978B
S11301E0F1F700C00000CF910895CF93C82F61E0CC
S11301F081E00E94B9096C2F661F6627661F86E09E
S11302000E94B909C6FB662760F985E00E94B90916
S1130210C5FB662760F984E00E94B909C4FB662720
S113022060F983E00E94B90961E082E00E94B909A3
S11302308FEC97E00197F1F700C0000060E082E0E6
S11302400E94B9098FEC97E00197F1F700C0000014
S1130250C3FB662760F986E00E94B909C2FB6627E2
S113026060F985E00E94B909C1FB662760F984E062
S11302700E94B9096C2F617083E00E94B90961E0A2
S113028082E00E94B9098FEC97E00197F1F700C072
S1130290000060E082E00E94B9098FEC97E00197CA
S11302A0F1F700C00000CF9108952FE788E391E0B3
S11302B0215080409040E1F700C0000082E00E949D
S11302C0950088E20E9495008CE00E94950081E0F0
S11302D00E9495008FEC97E00197F1F700C00000B1
S11302E086E00C9495000C94F5000F931F93CF9324
S11302F08C01C0E0F801EC0FF11D8081882321F00E
S11303000E94F500CF5FF6CFCF911F910F91089512
S11303104F925F926F927F92AF92BF92CF92DF9291
S1130320EF92FF921F93CF93DF93CDB7DEB764971D
S11303300FB6F894DEBF0FBECDBF6B017C01611513
S1130340710581059105B1F480E364960FB6F894C4
S1130350DEBF0FBECDBFDF91CF911F91FF90EF9015
S1130360DF90CF90BF90AF907F906F905F904F9051
S11303700C94F50097FF0BC0F094E094D094C094D3
S1130380C11CD11CE11CF11C8DE20E94F50010E09F
S11303909AE0492E512C612C712CAA24A394B12CDF
S11303A0AC0EBD1EA10EB11CC701B601A301920182
S11303B00E94350B605DF501608369017A0181E07B
S11303C0810FC114D104E104F10411F0182FE5CF19
S11303D0F12EF7FC0DC0E1E0F0E0EC0FFD1FEF0D96
S11303E0F11DF7FCFA9580810E94F500FA94F1CF93
S11303F064960FB6F894DEBF0FBECDBFDF91CF91E8
S11304001F91FF90EF90DF90CF90BF90AF907F90BF
S11304106F905F904F900895EF92FF921F93CF9348
S1130420DF93C7E0D0E010E0E82EF12CC7010C2EDA
S113043002C0959587950A94E2F780FF05C081E391
S11304400E94F50011E007C0113021F480E30E94FE
S1130450F50001C010E0219748F7DF91CF911F917B
S1130460FF90EF900895811103C0862F806804C027
S1130470813021F480EC860F0C949500089581E07E
S11304800C949500CF93C82F82958F70CF708A30CB
S113049010F4805D01C0895C0E94F500CA3010F43C
S11304A080E301C087E38C0FCF910C94F5000F9388
S11304B01F938091F60081111EC060E00E943302F8
S11304C081E790E00E9475018AE790E00E9475013F
S11304D060E081E00E94330284E790E00E947501AD
S11304E088E790E00E94750162E080E00E94330298
S11304F081E08093F6000E944900809360008E346E
S113050009F47BC08091F600813079F462E080E0E8
S11305100E94330287E790E00E94750162E080E068
S11305200E94330282E08093F6008091600090ED97
S1130530980F9A3030F50E9473012091F2003091A7
S1130540F3004091F4005091F500AAE0B0E00E945D
S1130550540B2091600030E0205331098901330F9E
S1130560220B330BDC01CB01800F911FA21FB31FA1
S11305708093F2009093F300A093F400B093F500FD
S11305803CC08D33A1F462E081E00E94330280918B
S1130590F2000E940C028FE790E00E94750162E075
S11305A080E00E94330281E08093F6001EC0833411
S11305B029F41092F9001092F6001FC00E943F0225
S11305C060E080E00E94330286E890E00E947501BA
S11305D02FEF8EE994E2215080409040E1F700C073
S11305E000001092F9001092F6001092F20010929E
S11305F0F3001092F4001092F5001F910F910895EA
S11306000F931F938091F60081111EC060E00E9439
S1130610330281E790E00E9475018AE790E00E942E
S1130620750160E081E00E94330281E790E00E945E
S113063075018AE790E00E94750162E080E00E9403
S1130640330281E08093F6000E94490080936000A9
S11306508E3409F47DC08091F600813079F462E033
S113066080E00E94330287E790E00E94750162E017
S113067080E00E94330282E08093F6008091600063
S113068090ED980F9A3030F50E9473012091F2009A
S11306903091F3004091F4005091F500AAE0B0E0ED
S11306A00E94540B2091600030E0205331098901ED
S11306B0330F220B330BDC01CB01800F911FA21FE0
S11306C0B31F8093F2009093F300A093F400B093CF
S11306D0F5003EC08D33B1F462E081E00E94330244
S11306E06091F2007091F3008091F4009091F50014
S11306F00E9488018FE790E00E94750181E0809359
S1130700F6001EC0833429F41092F9001092F6000A
S11307101FC00E943F0260E080E00E94330286E82E
S113072090E00E9475012FEF8EE994E22150804001
S11307309040E1F700C000001092F9001092F6001A
S11307401092F2001092F3001092F4001092F5004F
S11307501F910F9108950F931F938091F6008111BB
S11307601EC060E00E94330281E790E00E947501A0
S11307708AE790E00E94750160E081E00E94330204
S113078085E990E00E9475018AE790E00E94750176
S113079062E080E00E94330281E08093F6000E94D0
S11307A04900809360008E3409F472C08091F60091
S11307B0813079F462E080E00E94330287E790E0C0
S11307C00E94750162E080E00E94330282E080931F
S11307D0F6008091600090ED980F9A3030F50E94F9
S11307E073012091F2003091F3004091F400509194
S11307F0F500AAE0B0E00E94540B2091600030E0C4
S1130800205331098901330F220B330BDC01CB0157
S1130810800F911FA21FB31F8093F2009093F300E7
S1130820A093F400B093F50033C08D33C1F462E0BB
S113083081E00E9433028091F2000E9442028FE71D
S113084090E00E94750181E08093F6001092F2001E
S11308501092F3001092F4001092F50019C0833442
S113086099F00E943F0260E080E00E94330286E833
S113087090E00E9475012FEF8EE994E221508040B0
S11308809040E1F700C000001092F9001092F600C9
S11308901F910F9108958091F60081111EC060E0B0
S11308A00E94330284E790E00E9475018AE790E099
S11308B00E94750160E081E00E94330284E790E0C9
S11308C00E9475018AE790E00E94750162E080E071
S11308D00E94330281E08093F6000E9449008093D5
S11308E060008E3409F477C08091F600813079F489
S11308F062E080E00E94330287E790E00E94750185
S113090062E080E00E94330282E08093F6008091EE
S1130910600090ED980F923030F50E947301809141
S1130920F2009091F300A091F400B091F500AC01B5
S1130930BD01440F551F661F771F2091600030E0F2
S1130940C901C097092E000CAA0BBB0B840F951F7D
S1130950A61FB71F8093F2009093F300A093F400B6
S1130960B093F50008958D3381F462E081E00E9434
S113097033028091F2000E940C028CE790E00E9406
S1130980750181E08093F6001EC0833429F410922F
S1130990F9001092F60008950E943F0260E080E0A2
S11309A00E94330286E890E00E9475012FEF8EE9E1
S11309B094E2215080409040E1F700C00000109282
S11309C0F9001092F6001092F2001092F3001092C7
S11309D0F4001092F50008958091F60081111EC074
S11309E060E00E94330284E790E00E9475018AE788
S11309F090E00E94750160E081E00E94330281E78B
S1130A0090E00E9475018AE790E00E94750162E01F
S1130A1080E00E94330281E08093F6000E94490046
S1130A20809360008E3409F47DC08091F60081309B
S1130A3079F462E080E00E94330287E790E00E944C
S1130A40750162E080E00E94330282E08093F60048
S1130A508091600090ED980F923030F50E94730100
S1130A608091F2009091F300A091F400B091F50010
S1130A70AC01BD01440F551F661F771F2091600014
S1130A8030E0C901C097092E000CAA0BBB0B840FE0
S1130A90951FA61FB71F8093F2009093F300A093B5
S1130AA0F400B093F50008958D33B1F462E081E071
S1130AB00E9433026091F2007091F3008091F4007F
S1130AC09091F5000E9488018CE790E00E947501E6
S1130AD081E08093F6001EC0833429F41092F9005B
S1130AE01092F60008950E943F0260E080E00E94A8
S1130AF0330286E890E00E9475012FEF8EE994E2BC
S1130B00215080409040E1F700C000001092F900AD
S1130B101092F6001092F2001092F3001092F4007A
S1130B201092F50008958091F60081111EC060E0D6
S1130B300E94330284E790E00E9475018AE790E006
S1130B400E94750160E081E00E94330285E990E033
S1130B500E9475018AE790E00E94750162E080E0DE
S1130B600E94330281E08093F6000E944900809342
S1130B7060008E3409F477C08091F600813079F4F6
S1130B8062E080E00E94330287E790E00E947501F2
S1130B9062E080E00E94330282E08093F60080915C
S1130BA0600090ED980F923030F50E9473018091AF
S1130BB0F2009091F300A091F400B091F500AC0123
S1130BC0BD01440F551F661F771F2091600030E060
S1130BD0C901C097092E000CAA0BBB0B840F951FEB
S1130BE0A61FB71F8093F2009093F300A093F40024
S1130BF0B093F50008958D3381F462E081E00E94A2
S1130C0033028091F2000E9442028CE790E00E943D
S1130C10750181E08093F6001EC0833429F410929C
S1130C20F9001092F60008950E943F0260E080E00F
S1130C300E94330286E890E00E9475012FEF8EE94E
S1130C4094E2215080409040E1F700C000001092EF
S1130C50F9001092F6001092F2001092F300109234
S1130C60F4001092F5000895CF92DF92EF92FF9274
S1130C708091F60081111EC060E00E94330285E974
S1130C8090E00E9475018AE790E00E94750160E09F
S1130C9081E00E94330281E790E00E9475018AE7B7
S1130CA090E00E94750162E080E00E94330281E0DE
S1130CB08093F6000E944900809360008E3409F40A
S1130CC0B4C08091F600813079F462E080E00E9443
S1130CD0330287E790E00E94750162E080E00E94A1
S1130CE0330282E08093F6008091600090ED980FCB
S1130CF09A3028F09FE9980F963008F058C00E9467
S1130D0073012091600080ED820F8A3028F5809174
S1130D10F2009091F300A091F400B091F5006C0101
S1130D207D0194E0CC0CDD1CEE1CFF1C9A95D1F7E0
S1130D30422F50E0CA01C097092E000CAA0BBB0B2E
S1130D408C0D9D1DAE1DBF1D8093F2009093F3008A
S1130D50A093F400B093F5008FE9820F863008F079
S1130D6064C08091F2009091F300A091F400B091DE
S1130D70F500AC01BD0184E0440F551F661F771FC9
S1130D808A95D1F730E0C90187559109092E000CE5
S1130D90AA0BBB0B840F951FA61FB71F8093F200ED
S1130DA09093F300A093F400B093F5003EC08D330C
S1130DB0B1F462E081E00E9433026091F20070912C
S1130DC0F3008091F4009091F5000E9488018CE773
S1130DD090E00E94750181E08093F6001EC0833488
S1130DE029F41092F9001092F6001FC00E943F02ED
S1130DF060E080E00E94330286E890E00E94750182
S1130E002FEF8EE994E2215080409040E1F700C03A
S1130E1000001092F9001092F6001092F200109265
S1130E20F3001092F4001092F500FF90EF90DF9021
S1130E30CF900895CF92DF92EF92FF928091F600C7
S1130E4081111EC060E00E94330285E990E00E9497
S1130E5075018AE790E00E94750160E081E00E94DC
S1130E60330284E790E00E9475018AE790E00E94D3
S1130E70750162E080E00E94330281E08093F60015
S1130E800E944900809360008E3409F4AEC08091C2
S1130E90F600813079F462E080E00E94330287E753
S1130EA090E00E94750162E080E00E94330282E0DB
S1130EB08093F6008091600090ED980F9A3028F0AE
S1130EC09FE9980F963008F058C00E947301209152
S1130ED0600080ED820F8A3028F58091F2009091B5
S1130EE0F300A091F400B091F5006C017D0194E051
S1130EF0CC0CDD1CEE1CFF1C9A95D1F7422F50E060
S1130F00CA01C097092E000CAA0BBB0B8C0D9D1DAA
S1130F10AE1DBF1D8093F2009093F300A093F400E4
S1130F20B093F5008FE9820F863008F05EC080919F
S1130F30F2009091F300A091F400B091F500AC019F
S1130F40BD0184E0440F551F661F771F8A95D1F7B2
S1130F5030E0C90187559109092E000CAA0BBB0B7F
S1130F60840F951FA61FB71F8093F2009093F30080
S1130F70A093F400B093F50038C08D3381F462E09F
S1130F8081E00E9433028091F2000E940C028CE7FF
S1130F9090E00E94750181E08093F6001EC08334C6
S1130FA029F41092F9001092F6001FC00E943F022B
S1130FB060E080E00E94330286E890E00E947501C0
S1130FC02FEF8EE994E2215080409040E1F700C079
S1130FD000001092F9001092F6001092F2001092A4
S1130FE0F3001092F4001092F500FF90EF90DF9060
S1130FF0CF900895CF92DF92EF92FF928091F60006
S113100081111EC060E00E94330285E990E00E94D5
S113101075018AE790E00E94750160E081E00E941A
S1131020330285E990E00E9475018AE790E00E940E
S1131030750162E080E00E94330281E08093F60053
S11310400E944900809360008E3409F4AEC0809100
S1131050F600813079F462E080E00E94330287E791
S113106090E00E94750162E080E00E94330282E019
S11310708093F6008091600090ED980F9A3028F0EC
S11310809FE9980F963008F058C00E947301209190
S1131090600080ED820F8A3028F58091F2009091F3
S11310A0F300A091F400B091F5006C017D0194E08F
S11310B0CC0CDD1CEE1CFF1C9A95D1F7422F50E09E
S11310C0CA01C097092E000CAA0BBB0B8C0D9D1DE9
S11310D0AE1DBF1D8093F2009093F300A093F40023
S11310E0B093F5008FE9820F863008F05EC08091DE
S11310F0F2009091F300A091F400B091F500AC01DE
S1131100BD0184E0440F551F661F771F8A95D1F7F0
S113111030E0C90187559109092E000CAA0BBB0BBD
S1131120840F951FA61FB71F8093F2009093F300BE
S1131130A093F400B093F50038C08D3381F462E0DD
S113114081E00E9433028091F2000E9442028CE707
S113115090E00E94750181E08093F6001EC0833404
S113116029F41092F9001092F6001FC00E943F0269
S113117060E080E00E94330286E890E00E947501FE
S11311802FEF8EE994E2215080409040E1F700C0B7
S113119000001092F9001092F6001092F2001092E2
S11311A0F3001092F4001092F500FF90EF90DF909E
S11311B0CF9008950E943A0A0E94550166E080E0AB
S11311C00E94330288E990E00E9475012FEF89E6BE
S11311D098E1215080409040E1F700C000000E9457
S11311E03F02C2E08091F90081113BC060E00E949F
S11311F033028EE990E00E94750180E890E00E943D
S1131200750160E081E00E9433028BEA90E00E9465
S113121075010E944900809360008E3411F19FECA7
S1131220980F933038F480538093F80081E08093D2
S1131230F90017C00E943F0260E080E00E94330280
S113124087EB90E00E9475012FEF8EE994E2215024
S113125080409040E1F700C000000E943F021092DD
S1131260F9008091F900813009F03FC060E080E02E
S11312700E94330287EC90E00E94750180E890E0C0
S11312800E94750160E081E00E9433028BEA90E0E5
S11312900E94750180E890E00E9475010E94490057
S11312A0809360008E3409F19FEC980F933030F4F2
S11312B080538093F700C093F90017C00E943F0247
S11312C060E080E00E94330287EB90E00E947501A9
S11312D02FEF8EE994E2215080409040E1F700C066
S11312E000000E943F021092F9008091F9008230C0
S11312F009F078CF8091F8008230B9F0833039F169
S1131300813009F06FCF8091F700823041F0833053
S113131049F0813009F066CF0E94000363CF0E9438
S1131320570260CF0E94AB035DCF8091F7008230FB
S113133041F0833049F0813009F054CF0E94EC042D
S113134051CF0E944B044ECF0E9493054BCF809106
S1131350F700823041F0833049F0813009F042CF08
S11313600E9434063FCF0E941A073CCF0E94FA071E
S113137039CF982F96959695969587706130C1F5DB
S1131380913091F028F09230D9F0933029F10895FA
S11313904BB321E030E0B90102C0660F771F8A9594
S11313A0E2F7CB01842B3AC048B321E030E0B90125
S11313B002C0660F771F8A95E2F7CB01842B3CC0ED
S11313C045B321E030E0B90102C0660F771F8A956A
S11313D0E2F7CB01842B3EC042B321E030E0B901F7
S11313E002C0660F771F8A95E2F7CB01842B40C0B9
S11313F061113FC09130A1F028F09230F9F09330A0
S113140059F108954BB321E030E0B90102C0660FF1
S1131410771F8A95E2F7CB01809584238BBB0895CF
S113142048B321E030E0B90102C0660F771F8A9506
S1131430E2F7CB018095842388BB089545B321E06E
S113144030E0B90102C0660F771F8A95E2F7CB013D
S11314508095842385BB089542B321E030E0B9012F
S113146002C0660F771F8A95E2F7CB01809584232B
S113147082BB0895E2EDF0E040E081E090E051911C
S1131480342F369536953695242F2770513009F42C
S113149043C020F0523009F482C0C5C0323001F19B
S11314A0333061F1313071F05AB3BC0102C0660FC0
S11314B0771F2A95E2F79B01352F322B3ABB3BB3BA
S11314C020953DC057B3BC0102C0660F771F2A9513
S11314D0E2F79B01352F322B37BB38B320953EC042
S11314E054B3BC0102C0660F771F2A95E2F79B0133
S11314F0352F322B34BB35B320953FC051B3BC01DB
S113150002C0660F771F2A95E2F79B01352F322B15
S113151031BB32B3209541C0323011F1333081F107
S1131520313079F05AB3BC0102C0660F771F2A9597
S1131530E2F79B012095352F32233ABB3BB323239B
S113154042C057B3BC0102C0660F771F2A95E2F769
S11315509B012095352F322337BB38B3232343C057
S113156054B3BC0102C0660F771F2A95E2F79B01B2
S11315702095352F322334BB35B3232325BB53C0E9
S113158051B3BC0102C0660F771F2A95E2F79B0195
S11315902095352F322331BB32B3232343C032305D
S11315A021F1333089F1313081F05AB3BC0102C0EA
S11315B0660F771F2A95E2F79B01362F3095352366
S11315C03ABB3BB3232B2BBB2EC057B3BC0102C089
S11315D0660F771F2A95E2F79B01362F3095352346
S11315E037BB38B3232B28BB1EC054B3BC0102C085
S11315F0660F771F2A95E2F79B01362F3095352326
S113160034BB35B3232BBACF51B3BC0102C0660F30
S1131610771F2A95E2F79B01362F3095352331BB8E
S113162032B3232B22BB4F5F403209F028CF0895F9
S1131630282F2770869586958695813049F030F05D
S1131640823041F0833079F480B305C089B303C09C
S113165086B301C083B390E002C0959587952A951F
S1131660E2F78170089580E00895052E97FB1EF43B
S113167000940E944C0B57FD07D00E945F0B07FC9F
S113168003D04EF40C944C0B509540953095219515
S11316903F4F4F4F5F4F089590958095709561959A
S11316A07F4F8F4F9F4F08950E94810BA59F900DF0
S11316B0B49F900DA49F800D911D11240895A1E263
S11316C01A2EAA1BBB1BFD010DC0AA1FBB1FEE1FB8
S11316D0FF1FA217B307E407F50720F0A21BB30B03
S11316E0E40BF50B661F771F881F991F1A9469F77F
S11316F060957095809590959B01AC01BD01CF01DB
S11317000895A29FB001B39FC001A39F700D811DD6
S11317101124911DB29F700D811D1124911D0895F6
S1071720F894FFCF67
S11317244E37383961343536623132336543303DAE
S113173466443A00423A0020202020202020202021
S113174420202020200077726F6E67206E756D62F2
S11317546572212100483A0048656C6C6F00636F20
S11317646E766572742066726F6D00314420203287
S11317744220202033480077726F6E67206E756DA7
S113178462657220212100636F6E76657274207421
S11317946F000100000000000001000000000000D0
S11317A40000000000000000000002020202020225
S10517B400002F
S9030000FC
